:020000040800F2
:10000000D0040020D500000881190008DD17000881
:1000100000000000000000000000000000000000E0
:10002000000000000000000000000000CB190008E4
:100030000000000000000000C9190008CD190008E8
:10004000E7000008E7000008E7000008E7000008F4
:10005000E7000008E7000008E7000008E7000008E4
:10006000E7000008E7000008E7000008E7000008D4
:10007000E7000008E7000008E7000008E7000008C4
:10008000E7000008E7000008E7000008E7000008B4
:10009000E7000008E7000008E7000008E7000008A4
:1000A000E7000008E7000008E7000008E700000894
:1000B000E7000008E7000008E7000008E700000884
:1000C0000348854600F020FB00480047CD28000883
:1000D000D00400200448804704480047FEE7FEE7BC
:1000E000FEE7FEE7FEE7FEE72D1A0008C100000864
:1000F00030B50B46014600202022012409E00D46C0
:10010000D5409D4205D31D469540491B2546954047
:1001100040191546521E002DF1DC30BD10B5202AC5
:1001200004DB0846203AD040002110BD0B46D340E6
:10013000D0402024A21A91400843194610BDD2B2E3
:1001400001E00270401C491EFBD270470022F6E716
:1001500010B513460A4604461946FFF7F0FF20463D
:1001600010BD0000F0B51FB488B00B9909980024A9
:1001700048400999C00F490049080991C0070B99E7
:100180000090490049080B9109990898A646084330
:100190001CD00B990A98084318D0099801244000F4
:1001A000420D4800410D099824050003000B20432F
:1001B00009900B980003000B20430B9050181C492A
:1001C0004018002201901446104605E00020014628
:1001D0000DB0F0BD032801DA034600E003239C467E
:1001E000C11A0AAE0AE05F0008ADED5B4F00F75B95
:1001F0007D430027AA187C41491C5B1E6145F2DD46
:10020000410004AB5A522104120C0A43240C401C36
:100210000828DFDB01980290009970460191009058
:10022000059B049A0799069800F035F9D0E700007D
:100230000DFCFFFFF0B50C465C4085B0E40FE40711
:1002400003944C000026640859009446490802466D
:100250000296224321D062460A431ED06200570D07
:100260004A000E032303550D012402462C492405A0
:10027000781B1B0B360B4018234326436146009026
:100280001C46501AB44103D30098401C009002E071
:10029000921800985B41002803DA0020014605B05F
:1002A000F0BD0020012109050746864611E064469D
:1002B0001D46141BB54106D36546521BB341744617
:1002C00007430C43A646CD07400849082843921827
:1002D0005B4105460D43EAD11046184313D06046F2
:1002E000194650407140084306D06046101AB34189
:1002F00006D20122002306E000220123DB0702E0F0
:100300000122D2435310009874460105381C614104
:10031000029C039D0019694100F0B0F8BFE700009E
:10032000FD030000C217C10F504010B54018CA07A6
:100330009623002100F069F810BDC20FD2074000DB
:1003400040080BD0C10D0723DB01C9184002090585
:10035000400A1143C208400711437047002001467C
:100360007047CB0FDB07490010B5490802460A4326
:1003700007D00A0D07240903E401090B121B002A08
:1003800001DC002010BDC900440F0C43C100E0187F
:10039000D205801800F031F810BDF0B51FB4064644
:1003A000002082B005464024019100901BE0019995
:1003B00022460F463046FFF7B1FE049A059B801A8D
:1003C000994110D310461946224600F0AFF9361A6B
:1003D0008F410197224601200021009F00F0A6F9DD
:1003E00038184D4100902046641E0028DFDC019B38
:1003F00000982946324607B0F0BD002904DA401CB7
:10040000490001D140084000704770B40024050C39
:1004100005D11024000402D1002921D01124050E99
:1004200001D100020834050F01D10001241D850F00
:1004300001D18000A41C002801DB4000641C0029BD
:1004400008D020252E1B0D46F540A14000D00121EB
:100450002943084301061B1B000ADB1D02D50020AF
:1004600070BC7047DB05181880180029F8DA401CAA
:100470004900F5D170BC40084000704710B5002B12
:1004800008DA0024401C614192185B411A4301D1F3
:100490004008400010BDF0B51FB482B005460C0006
:1004A00003D0084601F094FC02E001F091FC2030FA
:1004B000024600902146284600F038F9049B059A30
:1004C00004460F4618431143084314D018461043FE
:1004D0001BD0009840210A1A18460599FFF71EFE06
:1004E00005460E46009A0599049800F01FF9084346
:1004F00005D0012004E02046394607B0F0BD0020B9
:10050000C11705430E432C43374300990E986305EA
:10051000401A7905E40A00220C43FD0A0A3002D58C
:1005200000200146E9E70105101969410C9C0D9D69
:1005300000196941FFF7A2FFDFE70000F0B50746A9
:100540000846584087B0C00F049048000E46590036
:1005500040084908BC1A884105D2384631461E4633
:1005600017460B4602465800400810434CD0300D49
:10057000039040055900400D490D0590401A029026
:10058000402872DA18030121000B09050843019085
:1005900004980092002805D0019952420020884119
:1005A00000920190029840210A1A0199009800F0E7
:1005B000BDF805460C466B4607CB00F0C7F8C019DE
:1005C0007141039A0E0D0023D71756401A467A4000
:1005D000164344D0049A002A2DD0029A012A039A85
:1005E00015DC1205C01A914101263605001C714127
:1005F000D20F059ED2070093019202962A46234607
:10060000FFF749FF07B0F0BD38463146FAE7160557
:10061000224A0F46B218C01AB74101210905001C31
:100620004F4100187F41114618187941E20F1043DD
:100630006D19644113E0E2076D0815436408C207B1
:100640001443039A01261205C01A91413605001C75
:100650007141CE07400830434908C01851412A462D
:100660002346FFF70BFFCDE7FFE704980122400088
:10067000C117121A00238B4104983146C417381A47
:10068000A141EEE730B40124E407634030BC55E7F4
:1006900030B40124E407614030BC4FE70000E0FFC4
:1006A0004A0009030123090B1B0519430A4B10B526
:1006B000520D9A4202DA0020014610BD064B343337
:1006C0009A4203DC9A1AFFF729FD10BD034BD2189A
:1006D00000F02CF810BD0000FF030000CDFBFFFF71
:1006E00010B5002904DB0124E40740428C41214677
:1006F000002B04DB1C460123DB075242A341994235
:1007000000D1904210BD0000064C0125064E05E0C8
:10071000E36807CC2B430C3C98471034B442F7D322
:10072000FFF7D2FC042A0008242A000810B5202A6A
:1007300004DB0146203A9140002010BD9140202367
:100740009C1A0346E3401943904010BD10B5202A7F
:1007500006DBCB170846203A1041C1170B4306E0D1
:100760000B461341D0402024A21A91400843194659
:1007700010BD70B5044600688168490720D58168BE
:1007800010264907002905DA8168890702D48168A3
:100790003143816000F07AFB05460DE000F076FB06
:1007A000401B022808D9606C30436064A06C0121B2
:1007B0000843A064084670BD206880684007EDD4F7
:1007C000002070BDF8B50446006881688907890F6C
:1007D000012928D10168C90702D1C168090422D5BD
:1007E0008168052211401025012601290FD1816859
:1007F00002221143816021680320086000F046FB5B
:1008000007460CE000F042FBC01B022807D9606CD1
:1008100028436064A06C3043A0640120F8BD2068C8
:100820008068C007EED10020F8BD0000F8B504468E
:1008300000200090206881688907890F012905D16F
:100840000168C9072CD1C168090429D48168154AF7
:10085000102611400125002915D1816829438160A6
:10086000124811490068FFF743FC00E0401E009069
:100870000028FBD100F00AFB07460CE000F006FB65
:10088000C01B022807D9606C30436064A06C284309
:10089000A0640120F8BD20680068C043C007EDD106
:1008A0000020F8BD1700008040420F000800002023
:1008B000F8B500250446403400952278012A3BD043
:1008C0000122227003689E68760776D43F4F4E68F7
:1008D000BE4254D09E6A0F78BA4016439E620123EE
:1008E000826B1B079A421FD0012A1DD0022A1BD0FF
:1008F000032A19D0042A17D0052A15D0062A13D0A6
:10090000072A11D002688B6856697607760FB342C2
:100910000AD05369DB08DB005361006842690B7A37
:100920005B075B0F1A4342610868102806D0112844
:1009300004D0122802D045E00220F8BD244A936872
:10094000102809D011280AD0012000060343936023
:100950000868102806D035E00120C005F6E7012020
:100960008005F3E71C481B490068FFF7C1FB0A211B
:10097000484300E0401E00900028FBD122E0986A26
:100980000E78B240904398620868102803D011286E
:1009900001D0122816D10E498A68102807D01128D4
:1009A00008D00120000682438A600BE005E00120A8
:1009B000C005F8E701208005F5E7416C20221143CE
:1009C00041640125002020702846F8BD0110000078
:1009D0000027014040420F00080000200068006C22
:1009E00070470000F8B500250446002803D0606C6D
:1009F000002802D008E00120F8BD0020A0644021BA
:100A00000855204600F0A8F8606C1022C0060028A7
:100A100070DB2068816849076CD4616C13019943CD
:100A200002231943616481688907890F012905D16F
:100A30000168C9070FD1C16809040CD4C168182323
:100A40009943A3681943C1602068016963688900FC
:100A50008908194301612068C1683D4B1940C16094
:100A6000A069E1698003C9030843216A4B03184365
:100A7000636B012B02D001231B0300E0002318430A
:100A8000E36818432369022B09D000231843236B22
:100A9000666A5B0018430123012E02D00AE004239A
:100AA000F4E7002927D0616C202631436164A16CF2
:100AB0001943A164A16A0E46FF3EC23E02D0E66A17
:100AC000314308432168CE680643CE600126A16BFE
:100AD0003607B14213D0012911D002290FD00329C2
:100AE0000DD004290BD0052909D0062907D00729E4
:100AF00005D010E028E0012109040843DAE7216865
:100B00004E69F608F6004E6121684E69278F7F070F
:100B10007F0F3E434E612168C9680E4E31408142CD
:100B200007D10020A064606C80088000401C6064D5
:100B300008E0606C0221884310436064A06C184395
:100B4000A06401252846F8BD606C10436064F8E796
:100B50001902FEFFE7FF3F8310B586B0044614215B
:100B60006846FFF7F3FA10492068884219D10F4808
:100B7000826941150A43826182690A40059242698D
:100B800009020A4342614069084005900220009032
:100B9000032001900020029009206946C00600F061
:100BA000C3F806B010BD0000002401400010024050
:100BB000F8B504464069254640350E4608280BD056
:100BC0002068C068C00709D0606C202108436064B9
:100BD000002028700120F8BD082700E00C2700F055
:100BE00055F9009011E0701C0FD0002E05D000F0D8
:100BF0004DF90099401AB04207D9606C04210843AE
:100C00006064002028700320F8BD20680068384226
:100C1000E9D0606C01214902084360642068C16822
:100C200009058A0F0C21002A1AD1226A002A17D13D
:100C30000268120714D5826853070122002B08DBD3
:100C400043688B434360606C1302984310436064B5
:100C500006E0606C202318436064A06C1043A0641D
:100C6000A069002801D1206801600020F8BD0000C3
:100C700070B50446216800208968490721D42546BB
:100C80004035297801291CD001212970E169012909
:100C900004D02046FFF7CAFD002811D1616C0A4A32
:100CA0001140FF220132114361640021A1642970C7
:100CB00022681C21116021688A6804231A438A6013
:100CC00070BD022070BD0000FEF1FFFF70B505464B
:100CD000044640352878012807D001262E7020468A
:100CE000FFF747FD002802D00CE0022070BD20462F
:100CF000FFF768FD002805D1616CFF2201329143A6
:100D0000314361640021297070BD31B500F0BEF837
:100D1000009C0546601C00D0641C00F0B7F8401B26
:100D2000A042FAD338BD0000F8B5002393E0224674
:100D300001249C40A44622407ED04C68022C01D065
:100D4000122C0CD1DC08A40027183C6A5D07ED0EBC
:100D50000F26AE40B4430E69AE4026433E6205689E
:100D60005E000324B4400F79A543BF07BF0FB7400F
:100D70002F4307604D68012D05D0022D03D0112DA2
:100D800001D0122D0ED18568CF68A543B7402F43FF
:100D9000876047686546AF430D79ED06ED0F9D40CE
:100DA0003D434560C568A5438C68B4402C43C4608E
:100DB0004C68E4004ED52B4CA56901263543A5614E
:100DC000A4699D0834400094274CAD002F19BC68DD
:100DD0009D072E0F0F25B540AC430925ED06A8420F
:100DE00001D1002514E0214DA84201D101250FE0D9
:100DF0001F4DA84201D102250AE01E4DA84201D193
:100E0000032505E01C4DA84201D1042500E005257D
:100E1000B5402543BD60194C25684E689543F603DF
:100E200000D51543256065684E689543B60300D527
:100E300015436560A56800E00CE04E689543F60236
:100E400000D51543A560E5684E689543B60200D508
:100E50001543E5605B1C0A681446DA4000D066E77B
:100E6000F8BD0000001002400000014000040048EE
:100E700000080048000C0048001000480004014031
:100E8000002A01D081617047816270470148006883
:100E9000704700000400002002480168491C0160FE
:100EA000704700000400002010B5064801681022B9
:100EB00011430160002000F007F800F017F800204F
:100EC00010BD00000020024010B5044600F060F99B
:100ED0007D21C900FFF70CF900F0A0FB002221469C
:100EE000501E00F017F8002010BD000008B508489B
:100EF0008169012211438161816911400091C269B8
:100F000001040A43C261C0690840009008BD0000A6
:100F10000010024010B500F035FD10BDF8B50446D4
:100F20000068434DC00352D5E8690026C00007D4CD
:100F3000E96928040143E961E9690140012600915A
:100F40003C480168C90510D401688215114301604D
:100F5000FFF79CFF074604E0FFF798FFC01B6428DB
:100F600024D834480068C005F6D5286A03273F0214
:100F7000384020D06168394081421CD0286A2A6AF2
:100F8000B843012109040A432A622A6A8A432A6271
:100F90002862C0070FD0FFF779FF009008E0FFF745
:100FA00075FF0099411A2448814201D90320F8BDF8
:100FB000286A8007F3D5286A6168B8430843286225
:100FC000002E04D0E869012109078843E8612078F0
:100FD000C00705D0286BA1688008800008432863FB
:100FE0002078800706D5286B032109048843E1682F
:100FF000084328632078800605D5286B1021884394
:101000002169084328632068800305D5286B802167
:101010008843A169084328632088400505D5286BCB
:10102000402188436169084328630020F8BD00001F
:10103000001002400070004088130000F8B505461B
:101040004E480E460068C007C00FB0420AD24B4857
:10105000016849084900314301600068C007C00FBA
:10106000B04270D12878464C800705D56068F021E1
:101070008843A968084360602878C00753D068682F
:10108000012817D0022818D0032819D02168890711
:10109000002958DA61688908890001436160FFF717
:1010A000F5FE69680746012913D002291DD00329DE
:1010B00027D034E021688903EAE721688901E7E75E
:1010C000616BC903E4E7FFF7E1FEC11B2D488142D4
:1010D00023D860680007800F0128F4D123E0FFF7D0
:1010E000D5FEC11B2748814217D860680007800FD2
:1010F0000228F4D117E0FFF7C9FEC11B2148814245
:101100000BD860680007800F0328F4D10BE0FFF7CD
:10111000BDFEC11B1B48814201D90320F8BD606898
:101120000007800FF3D115480168C907C90FB14204
:101130000BD9016849084900314301600068C007C4
:10114000C00FB04201D00120F8BD2878400706D575
:101150006068072109028843E9680843606000F07D
:101160002DF86168084A0906090F515CC840074913
:1011700008600020FFF7A8FE0020F8BD0020024014
:101180000010024088130000EC290008080000202D
:101190000148006870470000080000200448054925
:1011A00000684968044A4905490F515CC8407047C6
:1011B0000800002000100240FC29000830B516A3EA
:1011C0000FCB89B06C460FC417A30FCB0FC41A49BD
:1011D0004A680C20144604401848042C05D0184BCB
:1011E000082C04D00C2C00D1184609B030BD940254
:1011F000240F6D462C5DC96A04AD0907090FD2039F
:10120000695C920F022A02D0032A00D11846FEF729
:101210006FFF6043E9E700000203040506070809C1
:101220000A0B0C0D0E0F101001020304050607082F
:10123000090A0B0C0D0E0F100010024000127A006C
:10124000006CDC02FEB504460078F04EF04DC0079D
:1012500048D068680007800F01281FD06868000721
:10126000800F022804D16868C003800F022815D0BF
:101270006168012919D001208004002901D00529C5
:1012800017D02968B14329602968814329606068C3
:1012900000281BD0FFF7FAFD074613E028688003FB
:1012A00020D56068002876D01CE02868304328608C
:1012B000EDE7296801432960F7E7FFF7E7FDC01B69
:1012C000642869D828688003F7D50BE0FFF7DEFDB6
:1012D000074604E0FFF7DAFDC01B6428F1D8286850
:1012E0008003F7D4207880073ED568680007800F18
:1012F00014D068680007800F022804D16868C00312
:10130000800F01280AD0E068002828681DD001213C
:1013100008432860FFF7BAFD07460BE028688007FE
:101320000BD5E068012836D107E0FFF7AFFDC01B01
:101330000228C6D828688007F7D52868F82188438E
:101340002169C900084328600EE040084000286079
:10135000FFF79CFD074604E0FFF798FDC01B02283D
:10136000AFD828688007F7D42078000724D5E06933
:101370000028686A11D0012108436862FFF786FDE2
:10138000074604E0FFF782FDC01B022899D8686A6F
:101390008007F7D510E036E1D1E0400840006862F0
:1013A000FFF774FD074604E0FFF770FDC01B02283D
:1013B00087D8686A8007F7D4207804274007002878
:1013C00061DA00200190E869C00008D4E969B80634
:1013D0000143E961E96901400120009101908D48D4
:1013E0000168C90511D40168821511430160FFF736
:1013F0004DFD009005E0FFF749FD0099401A642873
:1014000097D884480068C005F5D5A06801280AD09F
:10141000002801D0052811D0286A40084000286221
:10142000286AB84302E0286A012108432862A068BC
:10143000002812D0FFF72AFD00900AE0286A3843FE
:101440002862F0E7FFF722FD0099411A72488142B5
:1014500075D8286A8007F5D50DE0FFF717FD0090D5
:1014600006E0FFF713FD0099411A6B48814266D8E8
:10147000286A8007F5D40198002804D0E969012082
:1014800000078143E9612078C00635D560690128ED
:101490000CD0401D686B24D038436863686B4008EB
:1014A00040006863FFF7F2FC074622E0686B3843B0
:1014B0006863686B012108436863FFF7E7FC074630
:1014C00004E0FFF7E3FCC01B022838D8686B8007F4
:1014D000F7D5686BF8218843A169C90008436863A0
:1014E0000AE0B8436863F4E7FFF7D0FCC01B0228AA
:1014F00025D8686B8007F7D42078800637D56868D0
:101500000007800F032813D068680007800F0228A7
:1015100004D16868C003800F032809D0206A00281E
:10152000686B16D030436863FFF7B0FC06460CE0EA
:10153000686BC0031BD5206A012864D117E05BE00B
:10154000FFF7A4FC801B022856D8686BC003F7D5B0
:101550000DE0B0436863FFF799FC064604E0FFF72F
:1015600095FC801B022847D8686BC003F7D4606ADB
:10157000002846D069680907890F022943D001264F
:1015800036060228286805D0B0432860FFF77EFCA5
:10159000044633E0B0432860FFF778FC074604E0D8
:1015A000FFF774FCC01B022826D828688001F7D4F6
:1015B000E86A216B000900010843E862A16AE06A59
:1015C000084369687B22D203914308436860286816
:1015D00030432860FFF75AFC044604E0FFF756FC4E
:1015E000001B022808D828688001F7D509E0FFF71A
:1015F0004DFC001B022801D90320FEBD2868800194
:10160000F5D40020FEBD0120FEBD00000000010059
:10161000001002400070004088130000094910B516
:10162000401E884201D9012010BD074C6061032192
:10163000081F00F0A7F90020A0610720206100200A
:1016400010BD0000FFFFFF0000E000E070B50400E7
:1016500005D025466035687A002802D006E00120D2
:1016600070BD00202872204600F026F82420687201
:1016700020680168490849000160204600F0A4FA8A
:101680000128EDD0606A002802D0204600F0FCF965
:10169000206841680922D202914341602068816834
:1016A0002A22914381602068016801221143016070
:1016B000204600F04FFA70BD10B586B004461421E4
:1016C0006846FEF743FD1149206888421CD1104846
:1016D000C269012149040A43C261C2690A400592F4
:1016E00042690A4342614069084005900C2000901D
:1016F0000220019000200290039001200490092014
:101700006946C006FFF710FB06B010BD004400405C
:1017100000100240FFB5064604466036707A83B07A
:101720000D46202858D1002D0CD00598002809D04E
:101730000120A1680003814207D12069002804D15B
:10174000E80702D0012007B0F0BD307A012843D06D
:10175000012030720020E06621207072FFF796FBB6
:10176000019027464037059838820598788218E01E
:10177000788A401E788206980090002280212046B8
:10178000019B00F0CFFA002818D10120A1680003C6
:10179000814202D12069002812D02168287808856A
:1017A0006D1C788A0028E3D1069800900022402121
:1017B0002046019B00F0B6FA002808D00320C2E7BB
:1017C00028882168C005C00D0885AD1CE9E72020E8
:1017D000707200203072B6E70220B4E7FEE7000026
:1017E0003EB5002112480091019102914160816053
:1017F00001240E4A04610260C1608161C16104225A
:10180000016242614162FF22C162C232446382626C
:101810000163FFF7E7F820030190000402900094B1
:1018200069460348FFF744F83EBD0000002401402C
:1018300010000020F0B587B014216846FEF786FC42
:101840003E4842690121C9040A43426142690A4093
:1018500005924269C9000A43426142690A40059201
:10186000426949110A43426142690A40059242694C
:1018700049000A43426140691925084009276D0162
:10188000FF060590002229463846FFF7F9FA4F2156
:10189000002209012A48FFF7F3FA39210022C90181
:1018A0002848FFF7EDFA0120400300902648002465
:1018B0000190694602942348FFF736FA0095012506
:1018C00002946946384601950394FFF72DFA1F48A4
:1018D0006A4631C269461A48FFF726FA47200001D6
:1018E000009002946946019503941548FFF71CFA8D
:1018F0008026029469461348009601950394FFF7E9
:1019000013FAE8036A4631C269463846FFF70CFA13
:1019100007208002112500900294694601950394E6
:101920000848FFF701FA02946946054800960195B8
:101930000394FFF7F9F907B0F0BD00000010024072
:1019400000040048000800480000211004080000BE
:1019500010B50A48084901604B2149024160002145
:101960008160C16001618161C1610C2201624261DB
:101970004162FFF76BFE10BD004400405C00002098
:10198000704700008307FF22DB0E9A408907090E8B
:10199000994000280BDA0007000F08388308084830
:1019A0009B001818C36993430B43C36170478308B6
:1019B00004489B001B181868904308431860704740
:1019C00000ED00E000E400E07047704710B5FFF75D
:1019D00063FA10BD10B598B034216846FEF7B6FB27
:1019E00000240D940E940F941C2111A81094FEF75E
:1019F000ADFB30200090012008900590102006904B
:101A000009946846FFF71EFC07200D9003200E90F6
:101A10000F94012110940DA8FFF710FB02201190E4
:101A2000149411A8FFF77AFA18B010BD1248016893
:101A30000122114301604168104A11404160016870
:101A40000F4A114001600168012292049143016034
:101A500041683F22120491434160C16A09090901AA
:101A6000C162016B074A11400163416B490849009B
:101A70004163002181607047001002400CB8FF08EC
:101A8000FFFFF6FE2CFEFCFF10B5818CC90707D0C6
:101A900001684A6801235B049A43836A1A434A60D7
:101AA000818C890707D501684A6801231B049A4382
:101AB000C36A1A434A60818C490707D501684A689E
:101AC00001239B049A43036B1A434A60818C0907E4
:101AD00007D501684A680123DB039A43436B1A4325
:101AE0004A60818CC90607D50268916801231B03EF
:101AF0009943836B19439160818C890607D50168EE
:101B00008A6801235B039A43C36B1A438A60818C02
:101B1000490612D503685A6801210905046C8A43F5
:101B200022435A60026C8A4207D10268516803233B
:101B30005B059943436C19435160818C090607D5B5
:101B400001684A680123DB04806C9A4302434A60BF
:101B500010BD0000F8B500260446C666FFF796F9EA
:101B6000054616492068884202D0154988421DD191
:101B70000068144F000709D501212B4600224905B2
:101B80002046009700F0CEF800280DD120680068AC
:101B900040070BD501212B460022890520460097DE
:101BA00000F0C0F8002801D00320F8BD20206034E8
:101BB0006072A07226720020F8BD0000003801405B
:101BC00000440040FFFFFF01F8B504462369A26806
:101BD000E5691A43636910202B43002125681A43E5
:101BE0002B680E46474F3B4013432B6023685A68CF
:101BF00003252D03AA43E5682A435A60236AA26994
:101C000025681A43AB680B273F02BB431343AB6005
:101C10003D4F25683D4B0203BD420AD11B6B9B071C
:101C20009B0F20D0012B14D0022B14D0032B1BD1DF
:101C30000DE0374FBD4210D11B6B03273F043B40E3
:101C400011D09B1A05D09B1A05D093420CD10220CB
:101C50000AE0042008E0082006E02E4B9D4202D056
:101C60002D4B9D4200D100200123E769DB039F42F9
:101C700022D100280CD002280DD0042813D0082827
:101C800017D001260A0912010807400F10432EE061
:101C9000FFF784FA09E06168204A48088018FEF7D7
:101CA00027FA81B2EEE7FFF789FA616840004A0837
:101CB000F4E761684808F1E7002808D0022809D055
:101CC00004280CD0082815D001263046F8BDFFF7AF
:101CD00065FA06E06168124A480880180DE0FFF7CF
:101CE0006DFA61684A088018FEF702FA80B221682E
:101CF000C860EAE761684808C018FEF7F9F980B2E1
:101D0000E860E2E7F369FFEF0038014000100240AD
:101D10000044004000480040004C00400024F40013
:101D200000127A00FFB581B017460E4604460A9DA0
:101D30001DE0681C1BD0002D05D0FFF7A7F8049903
:101D4000401AA84213D920680168FF22A1329143AA
:101D50000160206881684908490081602020603462
:101D60006072A07200202072032005B0F0BD2068D0
:101D7000C1693046884304D00020B842D9D0002041
:101D8000F3E70120F9E700000FB410B503A9044BF5
:101D9000044A029800F0FCF810BC08BC04B01847D4
:101DA000E52600080C0000200FB410B504A9074B6D
:101DB00002AA039800F0ECF8044602A9002000F003
:101DC00083FC204610BC08BC04B01847C926000894
:101DD0002021020C01D010211046020A01D0104629
:101DE0000839020901D01046091F820801D01046A7
:101DF000891E420801D0881E7047081A704702E009
:101E000008C8121F08C1002AFAD170477047002085
:101E100001E001C1121F002AFBD17047F0B51FB4C9
:101E200086B00998089A030D0021024314D0514846
:101E3000514A1818504305141198012810981AD0C7
:101E4000281A401C00264D4F4D49009601910490E0
:101E5000002812DA444211E01198012449A3012814
:101E600001D11098C1430698119A84600360C26042
:101E700041600BB0F0BD4042E4E70446210500207C
:101E80003F4A001C51410391029012E0E00707D045
:101E900032463B4601990098FEF764F901910090A3
:101EA00032463B4610461946FEF75CF906460F4699
:101EB0006410002CEAD10498039B0028029A099927
:101EC000089806DAFEF74EF9019B009AFEF74AF9E8
:101ED00005E0FEF7AFF9019B009AFEF7ABF9044667
:101EE0000E460022284BFEF7FBFB03D80020C04320
:101EF000014607E00022254B20463146FEF71EFB37
:101F0000FEF7CEFB102409E0002C0ADB0A22002396
:101F1000FEF743FA079B30321A55641E02460A4305
:101F2000F2D11122641C079B121B1C19119B012B5F
:101F300003D0012308430ED10AE0084304D0112046
:101F400010900020119077E71098151A6D1E0BE085
:101F50001098824202DD00236D1C03E0824201DA08
:101F600000236D1E002BEED0069811998260C1608F
:101F700030C07EE701FCFFFF104D00000000144060
:101F80000000F03F300000000000F0430000E03FA0
:101F9000FFB597B00646002518E2252877D1002422
:101FA0002746FD49049400E00443761C3278012062
:101FB000203A90400842F7D130782A280ED00222E9
:101FC000307801463039092916D804990A23594333
:101FD000303940181443761C0490F1E7189802C871
:101FE00004911890002904DA012040030443484278
:101FF000049002200443761C30782E2814D104204B
:1020000004437078761C2A2809D11898761C80C859
:10201000189009E00A214F43303FC719761C3078E9
:10202000014630390929F5D930786C2810D006DC02
:102030004C281AD068280ED06A2817D104E07428DA
:1020400013D07A2812D110E00120400504430CE09F
:102050000121090501E0032109050C437178814242
:1020600003D1012000052418761C761C30781190CD
:1020700066280BD013DC58287DD009DC00287BD0E3
:102080004528F6D04628F4D047281AD1A5E118E013
:10209000632835D0642870D0652812D19DE170285E
:1020A0006CD008DC6728F1D069287BD06E280DD071
:1020B0006F2806D1BAE073282ED0752871D0782801
:1020C00059D01A9A199990476D1C7EE16002400F11
:1020D000022809D003280DD00428189801680DD0D3
:1020E0000D60001D189070E11898EA1701680D60E6
:1020F0004A60F6E7189801680D80F2E70D70F0E786
:1021000018986A4601781172001D189000205072CC
:1021100002A80090012005E0189802C8189000203D
:102120000091C04361070DD5002101E00199491CD0
:102130000191B94212DA8142F8DB009A515C002920
:10214000F4D10BE0002101E00199491C0191814289
:10215000FADB019A0099895C0029F5D1019904986C
:102160001A9B471A21463846199A00F097FA0199A6
:10217000401945180BE04FE02CE113E04EE00098C9
:1021800000990078491C00911A9A19999047019872
:10219000401E0190401CF2D1214638461A9B199AE4
:1021A00010E137E00A200021009001916002410F08
:1021B000022907D0189A01CA1892C2179446032917
:1021C00008D00AE01898C01DC108C90005C91891B7
:1021D000944607E000B2C2179446042902D140B2E7
:1021E000C1178C4600226146944506DA0A46002152
:1021F000404291418C462D2102E0210504D52B213E
:102200006A461173012103E0E10701D02021F7E7BD
:10221000029155E00A200AE0102008E0102000900A
:102220000021042004430191082703E00820002135
:10223000019100906002410F022907D0189A01CA4B
:10224000189200229446032908D008E01898C01D6F
:10225000C108C90005C91891944603E080B2042959
:1022600000D1C0B200210291210729D5119970290E
:1022700006D0009A1021019B4A401A4305D00EE077
:1022800040216A461173012108E06146014306D0EE
:1022900030216A4611731199517302210291009AFB
:1022A0000821019B4A401A430AD16146014301D1EA
:1022B000610705D530216A46117301217F1E029105
:1022C0001199582904D035A10E910DA90D910DE059
:1022D00037A1F9E76146019B009AFEF75EF80E9B75
:1022E0008C469B5C0D9A521E0D9213706146014301
:1022F000F0D10D9805A9081A20300190600703D588
:1023000001200004844300E001270198874201DD99
:10231000381A00E00020019900904118029809182D
:102320000498401A0490E00306D421461A9B199A97
:10233000049800F0B3F94519002706E003A81A9A9B
:10234000C05D199990476D1C7F1C02988742F5DB90
:10235000E0030CD521461A9B199A049800F09EF9C7
:10236000451904E01A9A3020199990476D1C00997C
:10237000481E00900029F5DC08E00D980D990078C2
:10238000491C0D911A9A199990476D1C0199481E84
:1023900001900029F1DC63E109280100303132337A
:1023A0003435363738396162636465660000000091
:1023B000303132333435363738394142434445467B
:1023C0000000000000F05AF94519761C307800280A
:1023D00000D0E2E528461BB0F0BD600700D4062718
:1023E0001898C01DC108C90048680A680831C30FA1
:1023F000DB071891190001D09CA108E0210501D547
:102400009BA104E0E10701D09AA100E09AA143005A
:1024100011985B08109165280CD006DC452809D07E
:1024200046281DD0472841D141E0662818D06728AA
:102430003CD13CE00021112F01DB112000E0781C91
:102440000191009008A911A8FFF7E8FC13990591E4
:102450000021119A15927F1C12980197009150E06B
:102460000120C00703900120019008A9009711A83E
:10247000FFF7D4FC139A149905920022119B009245
:1024800012981593059A0192002901D0104602E096
:10249000791C40180190381A01D5019804E0404297
:1024A000401E0090781C0190C01B029043E0012F59
:1024B00000DA01270021112F01DD112000E038464C
:1024C0000191009008A911A8FFF7A8FC13990591A4
:1024D000119A0021129815920091019721070CD4AE
:1024E0000599B94201DB019900E00191012904DD60
:1024F000159A491E515C302906D0B84201DA011DF7
:1025000005DA0121029115E00199491EEDE7002845
:1025100005DC0099411800910199091A03E0019A1C
:10252000411C914200DD01910099401A401C02902B
:102530000120C0070390200706D402990198814228
:1025400002DB0020C043029000206946C87707AF35
:10255000012103980337C907884224D00220119033
:102560002B201290039800280CDA404203902D2073
:10257000129007E00A210398FDF7BAFD30317F1E63
:10258000039039701199481E11900029F2DC0398CC
:102590000028EFD1791E1298087030782021084069
:1025A0004530BF1E387006A8C01BC01D0390109890
:1025B0000078002800D00120019941180298C01726
:1025C0000918039809180498401A401E0490E00363
:1025D00006D421461A9B199A049800F05FF8451911
:1025E00010980078002803D01A9A199990476D1C0A
:1025F000E00324D521461A9B199A049800F04EF85E
:1026000045191CE00098002807DB009905988842CE
:1026100003DD1598405C199901E0199930201A9A48
:10262000904700986D1C401C00900298401E02903C
:10263000002804D11A9A2E20199990476D1C0199EF
:10264000481E01900029DDDC05E038781A9A7F1CCD
:10265000199990476D1C0399481E03900029F4DCDA
:1026600021461A9B199A0498ACE600002D00000040
:102670002B0000002000000000000000F8B5044618
:1026800000251E461746880404D405E0394620205C
:10269000B0476D1C641EF9D52846F8BDFFB5044649
:1026A000002581B01E46C80301D5302700E0202751
:1026B000880404D505E038460399B0476D1C641EB4
:1026C000F9D5284605B0F0BD0A68531C0B601070A0
:1026D000704700B5014601E000F084F9491EFBD2C5
:1026E00000BD000013B50A4800784C2802D05328DA
:1026F00005D00AE00098C0B200F066F805E00A23B1
:10270000012269460348FFF705F800981CBD000048
:10271000000000205C00002010B510280BD200291A
:102720000AD001290AD002290AD0032903D1D030C6
:10273000C0B200F06FF810BD8030F9E7C030F7E7A5
:102740009030F5E710B50446032000F089F8032027
:1027500000F086F8032000F083F8022000F080F8F3
:10276000282000F057F8204600F054F8062000F02A
:1027700051F8012000F04EF810BD0000C3072022E0
:102780000D49002B06D08A6183071022002B03DB42
:102790008A6202E08A62F7E78A61084A430701D445
:1027A0008A6200E08A6102070548064901D488620E
:1027B0007047886170470000000400480004000072
:1027C0000001000000000048F8B505460009FFF7C9
:1027D000D5FF012676020920C00686610C4C8027B1
:1027E000A7610520FFF775FF2003A0612807000FF0
:1027F000FFF7C4FF0920C0068661A7610520FFF727
:1028000068FF2003A0610520FEF77FFAF8BD0000F5
:1028100000080048F8B505460009FFF7AFFF01269C
:1028200076060920C00686610C4C8027A76105202A
:10283000FFF74FFF2003A0612807000FFFF79EFF5F
:102840000920C0068661A7610520FFF742FF20032B
:10285000A0610520FEF759FAF8BD00000008004805
:1028600010B5FFF78BFF012040060921C9068861DA
:10287000064A802090610520FFF72BFF0120C0054C
:1028800090610520FEF741FA10BD000000080048E5
:1028900010B5044602E0641CFFF796FF207800287C
:1028A000F9D110BD10B50848FEF7E2F9322106480B
:1028B000FEF77EF90448FEF791F804460248FEF759
:1028C00005FA204610BD000010000020FEF7ECFACB
:1028D000FFF780F8FEF7AEFFFFF73AF8FEF780FF4C
:1028E0000F20FFF72FFF1A4940208861194F1A4E19
:1028F0004C2500210C20FFF70FFFFFF7D3FF044604
:1029000000F034F82046FDF70DFDFDF716FD3A46C0
:10291000124BFDF727FC0022114BFDF78BFCFDF756
:1029200020FD044601210020FFF7F6FE3570204609
:10293000FDF703FD02460B460AA0FFF725FA2046E5
:1029400000F024F8FF20F530FEF7DFF9D1E70000B2
:1029500000040048666666660000002066660A405D
:1029600000FEAF4025322E336600000000B589B06E
:10297000024604A16846FFF717FA6846FFF788FF8A
:1029800009B000BD253034640000000010B50446D5
:1029900000210846FFF7C0FE3F200006844201DC0C
:1029A00009A003E00948844203DC09A0FFF7ECF921
:1029B00010BD0848844201DC07A0F7E707488442BD
:1029C000F6DC07A0F2E70000520000006666264031
:1029D00059000000000040404700000033335340DE
:1029E000420000000A20401EFDD170470000000098
:1029F00000000000010203040607080900000000AF
:102A000001020304242A0008000000201000000036
:102A1000FE1D0008342A000810000020C004000039
:102A20000E1E00084C0000000000000000127A009A
:042A300000000000A2
:04000005080000C12E
:00000001FF
