:020000040800F2
:10000000D0040020D5000008311700088915000829
:1000100000000000000000000000000000000000E0
:100020000000000000000000000000007B17000836
:100030000000000000000000791700087D1700088C
:10004000E7000008E7000008E7000008E7000008F4
:10005000E7000008E7000008E7000008E7000008E4
:10006000E7000008E7000008E7000008E7000008D4
:10007000E7000008E7000008E7000008E7000008C4
:10008000E7000008E7000008E7000008E7000008B4
:10009000E7000008E7000008E7000008E7000008A4
:1000A000E7000008E7000008E7000008E700000894
:1000B000E7000008E7000008E7000008E700000884
:1000C0000348854600F00AFA00480047312200083C
:1000D000D00400200448804704480047FEE7FEE7BC
:1000E000FEE7FEE7FEE7FEE7DD170008C1000008B7
:1000F00030B50B46014600202022012409E00D46C0
:10010000D5409D4205D31D469540491B2546954047
:1001100040191546521E002DF1DC30BD10B5202AC5
:1001200004DB0846203AD040002110BD0B46D340E6
:10013000D0402024A21A91400843194610BDD2B2E3
:1001400001E00270401C491EFBD270470022F6E716
:1001500010B513460A4604461946FFF7F0FF20463D
:1001600010BD0000F0B51FB488B00B9909980024A9
:1001700048400999C00F490049080991C0070B99E7
:100180000090490049080B9109990898A646084330
:100190001CD00B990A98084318D0099801244000F4
:1001A000420D4800410D099824050003000B20432F
:1001B00009900B980003000B20430B9050181C492A
:1001C0004018002201901446104605E00020014628
:1001D0000DB0F0BD032801DA034600E003239C467E
:1001E000C11A0AAE0AE05F0008ADED5B4F00F75B95
:1001F0007D430027AA187C41491C5B1E6145F2DD46
:10020000410004AB5A522104120C0A43240C401C36
:100210000828DFDB01980290009970460191009058
:10022000059B049A0799069800F005F9D0E70000AD
:100230000DFCFFFFF0B50C465C4085B0E40FE40711
:1002400003944C000026640859009446490802466D
:100250000296224321D062460A431ED06200570D07
:100260004A000E032303550D012402462C492405A0
:10027000781B1B0B360B4018234326436146009026
:100280001C46501AB44103D30098401C009002E071
:10029000921800985B41002803DA0020014605B05F
:1002A000F0BD0020012109050746864611E064469D
:1002B0001D46141BB54106D36546521BB341744617
:1002C00007430C43A646CD07400849082843921827
:1002D0005B4105460D43EAD11046184313D06046F2
:1002E000194650407140084306D06046101AB34189
:1002F00006D20122002306E000220123DB0702E0F0
:100300000122D2435310009874460105381C614104
:10031000029C039D0019694100F080F8BFE70000CE
:10032000FD030000C217C10F504010B54018CA07A6
:100330009623002100F039F810BDC20FD20740000B
:1003400040080BD0C10D0723DB01C9184002090585
:10035000400A1143C208400711437047002001467C
:100360007047CB0FDB07490010B5490802460A4326
:1003700007D00A0D07240903E401090B121B002A08
:1003800001DC002010BDC900440F0C43C100E0187F
:10039000D205801800F001F810BD002904DA401CD5
:1003A000490001D140084000704770B40024050C9A
:1003B00005D11024000402D1002921D01124050EFA
:1003C00001D100020834050F01D10001241D850F61
:1003D00001D18000A41C002801DB4000641C00291E
:1003E00008D020252E1B0D46F540A14000D001214C
:1003F0002943084301061B1B000ADB1D02D5002010
:1004000070BC7047DB05181880180029F8DA401C0A
:100410004900F5D170BC40084000704710B5002B72
:1004200008DA0024401C614192185B411A4301D153
:100430004008400010BDF0B51FB482B005460C0066
:1004400003D0084601F09CFB02E001F099FB20304C
:10045000024600902146284600F052F8049B059A77
:1004600004460F4618431143084314D0184610435E
:100470001BD0009840210A1A18460599FFF74EFE36
:1004800005460E46009A0599049800F039F808438D
:1004900005D0012004E02046394607B0F0BD002019
:1004A000C11705430E432C43374300990E9863054B
:1004B000401A7905E40A00220C43FD0A0A3002D5ED
:1004C00000200146E9E70105101969410C9C0D9DCA
:1004D00000196941FFF7A2FFDFE70000064C012584
:1004E000064E05E0E36807CC2B430C3C98471034DC
:1004F000B442F7D3FFF7E8FD30230008502300088B
:1005000010B5202A04DB0146203A9140002010BD9E
:10051000914020239C1A0346E3401943904010BDAC
:1005200070B5044600688168490720D581681026A7
:100530004907002905DA8168890702D481683143B7
:10054000816000F079FB05460DE000F075FB401B73
:10055000022808D9606C30436064A06C0121084314
:10056000A064084670BD206880684007EDD4002074
:1005700070BDF8B50446006881688907890F0129B4
:1005800028D10168C90702D1C168090422D5816850
:10059000052211401025012601290FD18168022270
:1005A0001143816021680320086000F045FB074685
:1005B0000CE000F041FBC01B022807D9606C284307
:1005C0006064A06C3043A0640120F8BD206880689E
:1005D000C007EED10020F8BDF8B504460020009019
:1005E000206881688907890F012905D10168C90739
:1005F0002CD1C168090429D48168154A10261140FC
:100600000125002915D181682943816012481149CB
:100610000068FFF76DFD00E0401E00900028FBD150
:1006200000F00AFB07460CE000F006FBC01B0228A6
:1006300007D9606C30436064A06C2843A06401203B
:10064000F8BD20680068C043C007EDD10020F8BDA8
:100650001700008040420F0008000020F8B5002578
:100660000446403400952278012A3BD001222270B2
:1006700003689E68760776D43F4F4E68BE4254D0DA
:100680009E6A0F78BA4016439E620123826B1B0755
:100690009A421FD0012A1DD0022A1BD0032A19D04A
:1006A000042A17D0052A15D0062A13D0072A11D0FC
:1006B00002688B6856697607760FB3420AD0536991
:1006C000DB08DB005361006842690B7A5B075B0F54
:1006D0001A4342610868102806D0112804D0122855
:1006E00002D045E00220F8BD244A9368102809D0C2
:1006F00011280AD0012000060343936008681028DF
:1007000006D035E00120C005F6E701208005F3E7BB
:100710001C481B490068FFF7EBFC0A21484300E036
:10072000401E00900028FBD122E0986A0E78B2406B
:10073000904398620868102803D0112801D012282D
:1007400016D10E498A68102807D0112808D0012038
:10075000000682438A600BE005E00120C005F8E74F
:1007600001208005F5E7416C2022114341640125F9
:10077000002020702846F8BD01100000002701402D
:1007800040420F00080000200068006C7047000025
:10079000F8B500250446002803D0606C002802D07C
:1007A00008E00120F8BD0020A06440210855204643
:1007B00000F0A8F8606C1022C006002870DB2068EA
:1007C000816849076CD4616C130199430223194372
:1007D000616481688907890F012905D10168C9070A
:1007E0000FD1C16809040CD4C16818239943A368C8
:1007F0001943C16020680169636889008908194349
:1008000001612068C1683D4B1940C160A069E16980
:100810008003C9030843216A4B031843636B012B10
:1008200002D001231B0300E000231843E3681843B0
:100830002369022B09D000231843236B666A5B00EF
:1008400018430123012E02D00AE00423F4E7002913
:1008500027D0616C202631436164A16C1943A164E7
:10086000A16A0E46FF3EC23E02D0E66A314308430B
:100870002168CE680643CE600126A16B3607B142DF
:1008800013D0012911D002290FD003290DD004293A
:100890000BD0052909D0062907D0072905D010E07B
:1008A00028E0012109040843DAE721684E69F608C7
:1008B000F6004E6121684E69278F7F077F0F3E4308
:1008C0004E612168C9680E4E3140814207D1002037
:1008D000A064606C80088000401C606408E0606C6C
:1008E0000221884310436064A06C1843A064012572
:1008F0002846F8BD606C10436064F8E71902FEFFFB
:10090000E7FF3F8310B586B0044614216846FFF721
:100910001DFC10492068884219D10F488269411591
:100920000A43826182690A400592426909020A43C8
:100930004261406908400590022000900320019028
:100940000020029009206946C00600F0C3F806B0F6
:1009500010BD00000024014000100240F8B504461C
:100960004069254640350E4608280BD02068C068EF
:10097000C00709D0606C2021084360640020287003
:100980000120F8BD082700E00C2700F055F9009081
:1009900011E0701C0FD0002E05D000F04DF9009929
:1009A000401AB04207D9606C0421084360640020FB
:1009B00028700320F8BD206800683842E9D0606CD8
:1009C00001214902084360642068C16809058A0F53
:1009D0000C21002A1AD1226A002A17D102681207B4
:1009E00014D5826853070122002B08DB43688B4330
:1009F0004360606C130298431043606406E0606CCF
:100A0000202318436064A06C1043A064A0690028F0
:100A100001D1206801600020F8BD000070B50446D7
:100A2000216800208968490721D425464035297866
:100A300001291CD001212970E169012904D0204637
:100A4000FFF7CAFD002811D1616C0A4A1140FF224C
:100A50000132114361640021A164297022681C21C4
:100A6000116021688A6804231A438A6070BD0220DD
:100A700070BD0000FEF1FFFF70B50546044640352D
:100A80002878012807D001262E702046FFF748FD60
:100A9000002802D00CE0022070BD2046FFF769FD5F
:100AA000002805D1616CFF2201329143314361641A
:100AB0000021297070BD31B500F0BEF8009C0546DC
:100AC000601C00D0641C00F0B7F8401BA042FAD3B1
:100AD00038BD0000F8B5002393E0224601249C4075
:100AE000A44622407ED04C68022C01D0122C0CD19E
:100AF000DC08A40027183C6A5D07ED0E0F26AE4007
:100B0000B4430E69AE4026433E6205685E0003248E
:100B1000B4400F79A543BF07BF0FB7402F4307600D
:100B20004D68012D05D0022D03D0112D01D0122DBD
:100B30000ED18568CF68A543B7402F4387604768CB
:100B40006546AF430D79ED06ED0F9D403D43456091
:100B5000C568A5438C68B4402C43C4604C68E4006D
:100B60004ED52B4CA56901263543A561A4699D0886
:100B700034400094274CAD002F19BC689D072E0F00
:100B80000F25B540AC430925ED06A84201D100254B
:100B900014E0214DA84201D101250FE01F4DA842CC
:100BA00001D102250AE01E4DA84201D1032505E02E
:100BB0001C4DA84201D1042500E00525B540254380
:100BC000BD60194C25684E689543F60300D5154362
:100BD000256065684E689543B60300D5154365608A
:100BE000A56800E00CE04E689543F60200D5154379
:100BF000A560E5684E689543B60200D51543E560EB
:100C00005B1C0A681446DA4000D066E7F8BD0000B5
:100C100000100240000001400004004800080048A5
:100C2000000C00480010004800040140002A01D0D8
:100C30008161704781627047014800687047000019
:100C40000400002002480168491C01607047000050
:100C50000400002010B5064801681022114301600D
:100C6000002000F007F800F017F8002010BD000089
:100C70000020024010B5044600F060F97D21C90053
:100C8000FFF736FA00F0A0FB00222146501E00F0CC
:100C900017F8002010BD000008B50848816901223E
:100CA00011438161816911400091C26901040A43C5
:100CB000C261C0690840009008BD000000100240F9
:100CC00010B500F037FD10BDF8B504460068434D7F
:100CD000C00352D5E8690026C00007D4E96928049A
:100CE0000143E961E9690140012600913C4801683E
:100CF000C90510D40168821511430160FFF79CFFFC
:100D0000074604E0FFF798FFC01B642824D8344846
:100D10000068C005F6D5286A03273F02384020D076
:100D20006168394081421CD0286A2A6AB84301218F
:100D300009040A432A622A6A8A432A622862C0078F
:100D40000FD0FFF779FF009008E0FFF775FF0099DB
:100D5000411A2448814201D90320F8BD286A80073E
:100D6000F3D5286A6168B84308432862002E04D08E
:100D7000E869012109078843E8612078C00705D0A8
:100D8000286BA168800880000843286320788007CA
:100D900006D5286B032109048843E16808432863CA
:100DA0002078800605D5286B1021884321690843E7
:100DB00028632068800305D5286B80218843A169BA
:100DC000084328632088400505D5286B40218843C7
:100DD0006169084328630020F8BD0000001002404C
:100DE0000070004088130000F8B505464E480E46D6
:100DF0000068C007C00FB0420AD24B4801684908DA
:100E00004900314301600068C007C00FB04270D193
:100E10002878464C800705D56068F0218843A9688A
:100E2000084360602878C00753D06868012817D04D
:100E3000022818D0032819D021688907002958DA18
:100E400061688908890001436160FFF7F5FE696800
:100E50000746012913D002291DD0032927D034E0E9
:100E600021688903EAE721688901E7E7616BC90323
:100E7000E4E7FFF7E1FEC11B2D48814223D86068FB
:100E80000007800F0128F4D123E0FFF7D5FEC11B36
:100E90002748814217D860680007800F0228F4D1E4
:100EA00017E0FFF7C9FEC11B214881420BD86068DB
:100EB0000007800F0328F4D10BE0FFF7BDFEC11B34
:100EC0001B48814201D90320F8BD60680007800FEC
:100ED000F3D115480168C907C90FB1420BD90168A0
:100EE00049084900314301600068C007C00FB042A3
:100EF00001D00120F8BD2878400706D56068072199
:100F000009028843E9680843606000F02DF86168D1
:100F1000084A0906090F515CC840074908600020CB
:100F2000FFF7A8FE0020F8BD00200240001002409C
:100F300088130000182300080800002001480068FA
:100F4000704700000800002004480549006849680F
:100F5000044A4905490F515CC84070470800002009
:100F6000001002402823000830B516A30FCB89B02B
:100F70006C460FC417A30FCB0FC41A494A680C2044
:100F8000144604401848042C05D0184B082C04D0F3
:100F90000C2C00D1184609B030BD9402240F6D46C8
:100FA0002C5DC96A04AD0907090FD203695C920F71
:100FB000022A02D0032A00D11846FFF799F86043AD
:100FC000E9E7000002030405060708090A0B0C0DF7
:100FD0000E0F10100102030405060708090A0B0C86
:100FE0000D0E0F100010024000127A00006CDC029F
:100FF000FEB504460078F04EF04DC00748D0686852
:101000000007800F01281FD068680007800F0228A2
:1010100004D16868C003800F022815D061680129D7
:1010200019D001208004002901D0052917D0296892
:10103000B1432960296881432960606800281BD07A
:10104000FFF7FAFD074613E02868800320D56068A3
:10105000002876D01CE0286830432860EDE7296836
:1010600001432960F7E7FFF7E7FDC01B642869D853
:1010700028688003F7D50BE0FFF7DEFD074604E0A4
:10108000FFF7DAFDC01B6428F1D828688003F7D485
:10109000207880073ED568680007800F14D0686804
:1010A0000007800F022804D16868C003800F012860
:1010B0000AD0E068002828681DD001210843286074
:1010C000FFF7BAFD07460BE0286880070BD5E068FC
:1010D000012836D107E0FFF7AFFDC01B0228C6D8B4
:1010E00028688007F7D52868F82188432169C90056
:1010F000084328600EE0400840002860FFF79CFD90
:10110000074604E0FFF798FDC01B0228AFD8286807
:101110008007F7D42078000724D5E0690028686AA2
:1011200011D0012108436862FFF786FD074604E0FD
:10113000FFF782FDC01B022899D8686A8007F7D59F
:1011400010E036E1D1E0400840006862FFF774FD2E
:10115000074604E0FFF770FDC01B022887D8686AC5
:101160008007F7D4207804274007002861DA0020A0
:101170000190E869C00008D4E969B8060143E96153
:10118000E96901400120009101908D480168C9057D
:1011900011D40168821511430160FFF74DFD0090E5
:1011A00005E0FFF749FD0099401A642897D8844864
:1011B0000068C005F5D5A06801280AD0002801D034
:1011C000052811D0286A400840002862286AB843E0
:1011D00002E0286A012108432862A068002812D092
:1011E000FFF72AFD00900AE0286A38432862F0E7FA
:1011F000FFF722FD0099411A7248814275D8286A8A
:101200008007F5D50DE0FFF717FD009006E0FFF72A
:1012100013FD0099411A6B48814266D8286A8007FD
:10122000F5D40198002804D0E96901200007814322
:10123000E9612078C00635D5606901280CD0401DD1
:10124000686B24D038436863686B4008400068636B
:10125000FFF7F2FC074622E0686B38436863686B6F
:10126000012108436863FFF7E7FC074604E0FFF746
:10127000E3FCC01B022838D8686B8007F7D5686B81
:10128000F8218843A169C900084368630AE0B843AC
:101290006863F4E7FFF7D0FCC01B022825D8686B11
:1012A0008007F7D42078800637D568680007800F5C
:1012B000032813D068680007800F022804D16868EB
:1012C000C003800F032809D0206A0028686B16D05D
:1012D00030436863FFF7B0FC06460CE0686BC00360
:1012E0001BD5206A012864D117E05BE0FFF7A4FC5E
:1012F000801B022856D8686BC003F7D50DE0B043B9
:101300006863FFF799FC064604E0FFF795FC801B35
:10131000022847D8686BC003F7D4606A002846D01B
:1013200069680907890F022943D001263606022879
:10133000286805D0B0432860FFF77EFC044633E000
:10134000B0432860FFF778FC074604E0FFF774FC21
:10135000C01B022826D828688001F7D4E86A216BD0
:10136000000900010843E862A16AE06A084369686D
:101370007B22D20391430843686028683043286089
:10138000FFF75AFC044604E0FFF756FC001B022856
:1013900008D828688001F7D509E0FFF74DFC001B4D
:1013A000022801D90320FEBD28688001F5D4002061
:1013B000FEBD0120FEBD0000000001000010024043
:1013C0000070004088130000094910B5401E884293
:1013D00001D9012010BD074C60610321081F00F0F6
:1013E000A9F90020A06107202061002010BD0000A5
:1013F000FFFFFF0000E000E070B5040005D02546C7
:101400006035687A002802D006E0012070BD002017
:101410002872204600F026F82420687220680168AF
:10142000490849000160204600F0A6FA0128EDD0E5
:10143000606A002802D0204600F0FEF9206841686A
:101440000922D20291434160206881682A22914397
:10145000816020680168012211430160204600F08C
:1014600051FA70BD10B586B0044614216846FEF7E7
:101470006DFE1149206888421CD11048C2690121C3
:1014800049040A43C261C2690A40059242690A439B
:1014900042614069084005900C20009002200190B4
:1014A0000020029003900120049009206946C006A4
:1014B000FFF710FB06B010BD0044004000100240D2
:1014C000FFB5064604466036707A83B00D46202884
:1014D00058D1002D0CD00598002809D00120A16812
:1014E0000003814207D12069002804D1E80702D017
:1014F000012007B0F0BD307A012843D001203072BE
:101500000020E06621207072FFF796FB01902746CD
:101510004037059838820598788218E0788A401E0E
:10152000788206980090002280212046019B00F0DE
:10153000D1FA002818D10120A1680003814202D10C
:101540002069002812D02168287808856D1C788AC7
:101550000028E3D106980090002240212046019BFC
:1015600000F0B8FA002808D00320C2E728882168D4
:10157000C005C00D0885AD1CE9E720207072002071
:101580003072B6E70220B4E7FEE700003EB5002166
:1015900012480091019102914160816001240E4A3C
:1015A00004610260C1608161C16104220162426123
:1015B0004162FF22C162C232446382620163FFF76B
:1015C000E7F8200301900004029000946946034864
:1015D000FFF744F83EBD0000002401401000002049
:1015E000F0B587B014216846FEF7B0FD3D4842696A
:1015F0000121C9040A43426142690A4005924269D5
:10160000C9000A43426142690A4005924269491190
:101610000A43426142690A400592426949000A430D
:10162000426140690022084005902F492F48FFF78A
:10163000FDFA332609273601FF06002231463846D7
:10164000FFF7F4FA00222A492A48FFF7EFFA0120AF
:1016500040030090284800240190694602942348E2
:10166000FFF738FA8320012500900294694601951E
:1016700003941E48FFF72EFA0294694638460096F6
:1016800001950394FFF726FA1948029480380090D8
:101690006946019503941748FFF71CFA17486A46F4
:1016A00031C269461348FFF715FAE8036A4631C2AA
:1016B00069463846FFF70EFA072080021125009090
:1016C00002946946019503940848FFF703FA8020C5
:1016D000009002946946019503940648FFF7FAF9D1
:1016E00007B0F0BD00100240831C00000008004855
:1016F000F10400000004004800002110040800006C
:1017000010B50A48084901604B2149024160002197
:101710008160C16001618161C1610C22016242612D
:101720004162FFF769FE10BD004400405C000020EC
:10173000704700008307FF22DB0E9A408907090EDD
:10174000994000280BDA0007000F08388308084882
:101750009B001818C36993430B43C3617047830808
:1017600004489B001B181868904308431860704792
:1017700000ED00E000E400E07047704710B5FFF7AF
:1017800061FA10BD10B598B034216846FEF7DEFC52
:1017900000240D940E940F941C2111A81094FEF7B0
:1017A000D5FC302000900120089005901020069074
:1017B00009946846FFF71CFC07200D9003200E904B
:1017C0000F94012110940DA8FFF70EFB0220119039
:1017D000149411A8FFF778FA18B010BD12480168E8
:1017E0000122114301604168104A114041600168C3
:1017F0000F4A114001600168012292049143016087
:1018000041683F22120491434160C16A09090901FC
:10181000C162016B074A11400163416B49084900ED
:101820004163002181607047001002400CB8FF083E
:10183000FFFFF6FE2CFEFCFF10B5818CC90707D018
:1018400001684A6801235B049A43836A1A434A6029
:10185000818C890707D501684A6801231B049A43D4
:10186000C36A1A434A60818C490707D501684A68F0
:1018700001239B049A43036B1A434A60818C090736
:1018800007D501684A680123DB039A43436B1A4377
:101890004A60818CC90607D50268916801231B0341
:1018A0009943836B19439160818C890607D5016840
:1018B0008A6801235B039A43C36B1A438A60818C55
:1018C000490612D503685A6801210905046C8A4348
:1018D00022435A60026C8A4207D10268516803238E
:1018E0005B059943436C19435160818C090607D508
:1018F00001684A680123DB04806C9A4302434A6012
:1019000010BD0000F8B500260446C666FFF794F93E
:10191000054616492068884202D0154988421DD1E3
:101920000068144F000709D501212B460022490504
:101930002046009700F0CEF800280DD120680068FE
:1019400040070BD501212B46002289052046009730
:1019500000F0C0F8002801D00320F8BD202060343A
:101960006072A07226720020F8BD000000380140AD
:1019700000440040FFFFFF01F8B504462369A26858
:10198000E5691A43636910202B43002125681A4337
:101990002B680E46474F3B4013432B6023685A6821
:1019A00003252D03AA43E5682A435A60236AA269E6
:1019B00025681A43AB680B273F02BB431343AB6058
:1019C0003D4F25683D4B0203BD420AD11B6B9B076F
:1019D0009B0F20D0012B14D0022B14D0032B1BD132
:1019E0000DE0374FBD4210D11B6B03273F043B4036
:1019F00011D09B1A05D09B1A05D093420CD102201E
:101A00000AE0042008E0082006E02E4B9D4202D0A8
:101A10002D4B9D4200D100200123E769DB039F424B
:101A200022D100280CD002280DD0042813D0082879
:101A300017D001260A0912010807400F10432EE0B3
:101A4000FFF782FA09E06168204A48088018FEF72B
:101A50004FFB81B2EEE7FFF787FA616840004A0862
:101A6000F4E761684808F1E7002808D0022809D0A7
:101A700004280CD0082815D001263046F8BDFFF701
:101A800063FA06E06168124A480880180DE0FFF723
:101A90006BFA61684A088018FEF72AFB80B2216859
:101AA000C860EAE761684808C018FEF721FB80B209
:101AB000E860E2E7F369FFEF003801400010024000
:101AC0000044004000480040004C00400024F40066
:101AD00000127A00FFB581B017460E4604460A9DF3
:101AE0001DE0681C1BD0002D05D0FFF7A5F8049958
:101AF000401AA84213D920680168FF22A1329143FD
:101B000001602068816849084900816020206034B4
:101B10006072A07200202072032005B0F0BD206822
:101B2000C1693046884304D00020B842D9D0002093
:101B3000F3E70120F9E700000FB410B503A9044B47
:101B4000044A029800F042F810BC08BC04B01847E0
:101B5000492000080C0000200FB410B504A9074B61
:101B600002AA039800F032F8044602A9002000F00F
:101B7000D5F9204610BC08BC04B018471D1F00084A
:101B80002021020C01D010211046020A01D010467B
:101B90000839020901D01046091F820801D01046F9
:101BA000891E420801D0881E7047081A704702E05B
:101BB00008C8121F08C1002AFAD1704770470020D8
:101BC00001E001C1121F002AFBD17047FFB58FB0A1
:101BD0000546002606E025280AD0129A119990475A
:101BE0006D1C761C28780028F5D1304613B0F0BD66
:101BF000002402940121B54A009400E004436D1CC6
:101C00002B780846203B98401042F7D128782A28A4
:101C10000ED00222287801463039092916D80299B7
:101C20000A2359433039401814436D1C0290F1E7E0
:101C3000109802C802911090002904DA0120400394
:101C4000044348420290022004436D1C28782E2849
:101C500017D10420044368786D1C2A280CD11098F1
:101C60006D1C02C8009110900BE000990A225143AC
:101C7000303940186D1C0090287801463039092908
:101C8000F3D928786C2810D006DC4C281AD06828A4
:101C90000ED06A2817D104E0742813D07A2812D104
:101CA00010E00120400504430CE00121090501E09A
:101CB000032109050C436978814203D10120000505
:101CC00024186D1C6D1C2878692874D006DC002847
:101CD0008BD0632827D0642806D16CE06E2808D00A
:101CE00073282CD0752878D0129A11999047761CB9
:101CF0005FE06002400F022809D003280DD00428BD
:101D0000109801680DD00E60001D109051E01098E1
:101D1000F21701680E604A60F6E7109801680E80BD
:101D2000F2E70E70F0E710986A4601781173001D13
:101D300010900020507303A80190012005E0109836
:101D400002C8019110900020C04361070CD5002704
:101D500000E07F1C00998F420FDA8742F9DB01997E
:101D6000C95D0029F5D108E0002700E07F1C87420B
:101D7000FCDB0199C95D0029F8D102982146C01BFE
:101D80000290129B119A00F0B3F88019C61907E06F
:101D9000019801990078491C0191129A1199904774
:101DA0007F1EF5D22146129B119A029800F090F8FE
:101DB00086196D1C16E70A200190109901C910912F
:101DC0006102490F032900D100B2042900D140B2B9
:101DD000002803DA40422D2103E00DE0210504D55F
:101DE0002B216A461173012103E0E10711D0202164
:101DF000F7E70CAF0C9114E00A200190109901C98B
:101E000010916102490F032900D180B2042900D149
:101E1000C0B20021EDE70199FEF76AF930317F1E6B
:101E200039700028F7D104A8C01B2030019060074A
:101E300004D5012000048443009801E001200090B3
:101E40000199884201DD401A00E00020411800900D
:101E50000C9809180298401A0290E00306D4214613
:101E6000129B119A029800F043F8861900200D90F9
:101E700008E003A9085C129A119990470D98401C3C
:101E8000761C0D900C998842F3DBE0030CD52146BB
:101E9000129B119A029800F02BF8861904E0129A0E
:101EA000302011999047761C0099481E0090002917
:101EB000F5DC05E03878129A7F1C11999047761C62
:101EC0000199481E01900029F4DC6BE70928010004
:101ED000F8B5044600251E461746880404D405E0DC
:101EE00039462020B0476D1C641EF9D52846F8BD40
:101EF000FFB50446002581B01E46C80301D5302732
:101F000000E02027880404D505E038460399B0474F
:101F10006D1C641EF9D5284605B0F0BD0A68531C37
:101F20000B601070704700B5014601E000F0F0F959
:101F3000491EFBD200BD0000F8B510240925ED06AE
:101F4000AC6100210C2000F099F8FA20FEF7B3FDF7
:101F500000F05AF9064600F0B7F9FA20FEF7ABFD9B
:101F6000AC623046FEF7DEF9FEF7E7F9304A314B56
:101F7000FEF7F8F80022304BFEF75CF9FEF7F1F9B6
:101F80002E4E01240546B46100210C2000F076F8A5
:101F9000FA20FEF790FD00F037F9074600F094F9BB
:101FA000FA20FEF788FDB4623846FEF7BBF9FEF76B
:101FB000C4F91F4A1F4BFEF7D5F800221E4BFEF74F
:101FC00039F9FEF7CEF91E4F02260446BE61002104
:101FD0000C2000F053F8FA20FEF76DFD00F014F924
:101FE000009000F071F9FA20FEF765FDBE620098DE
:101FF000FEF798F9FEF7A1F90D4A0E4BFEF7B2F87D
:1020000000220D4BFEF716F9FEF7ABF901460D481D
:10201000844205DD854203DD814201DD4E20F8BDAD
:1020200001208007844201DA4220F8BD3F20F8BD3C
:102030006666666666660A4000FEAF4000040048B9
:10204000000800486666264013B50A4800784C2808
:1020500002D0532805D00AE00098C0B200F066F81C
:1020600005E00A23012269460348FFF729FA009890
:102070001CBD0000000000205C00002010B51028EE
:102080000BD200290AD001290AD002290AD003293B
:1020900003D1D030C0B200F06FF810BD8030F9E746
:1020A000C030F7E79030F5E710B50446032000F0A4
:1020B00089F8032000F086F8032000F083F802205E
:1020C00000F080F8282000F057F8204600F054F87F
:1020D000062000F051F8012000F04EF810BD00007D
:1020E000C30720220D49002B06D08A6183071022E6
:1020F000002B03DB8A6202E08A62F7E78A61084A02
:10210000430701D48A6200E08A6102070548064954
:1021100001D488627047886170470000000400485D
:10212000000400000001000000000048F8B505466A
:102130000009FFF7D5FF012676020920C006866157
:102140000C4C8027A7610520FFF7EDFE2003A0615E
:102150002807000FFFF7C4FF0920C0068661A761AA
:102160000520FFF7E0FE2003A0610520FEF7A3FC99
:10217000F8BD000000080048F8B505460009FFF763
:10218000AFFF012676060920C00686610C4C802729
:10219000A7610520FFF7C7FE2003A0612807000FF5
:1021A000FFF79EFF0920C0068661A7610520FFF7A3
:1021B000BAFE2003A0610520FEF77DFCF8BD0000FB
:1021C0000008004810B5FFF78BFF012040060921E9
:1021D000C9068861064A802090610520FFF7A3FEAA
:1021E0000120C00590610520FEF765FC10BD0000D0
:1021F0000008004810B5044602E0641CFFF796FF93
:1022000020780028F9D110BD10B50848FEF706FC6B
:1022100032210648FEF7A2FB0448FEF7B5FA044651
:102220000248FEF729FC204610BD000010000020E7
:10223000FEF710FDFFF7A6FAFFF7D2F9FFF760FAF5
:10224000FFF7A4F90F20FFF72FFF0849402088610E
:10225000FFF772FE044600F047F8422C02D000F06F
:1022600021F8F5E700F004F8F2E700000004004868
:10227000F8B5002401260A4DE127BF00AE61012018
:10228000FEF719FC3846FFF74EFEAE621220FEF74D
:1022900012FC6420FFF747FE641C052CEEDBF8BD42
:1022A0000008004870B50024064D0126AE610120EB
:1022B000FEF701FCAE620B20FEF7FDFB641C0A2C4E
:1022C000F4DB70BD0008004800B589B0024604A1E7
:1022D0006846FFF741FC6846FFF78CFF09B000BD78
:1022E000253034640000000038B50446002108465B
:1022F000FFF7C4FE23462246214602A00094FFF7C2
:102300001BFC38BD256325632563256300000000A1
:102310000A20401EFDD170470000000000000000B0
:10232000010203040607080900000000010203047B
:10233000502300080000002010000000AE1B000821
:102340006023000810000020C0040000BE1B00082D
:102350004C0000000000000000127A0000000000A5
:04000005080000C12E
:00000001FF
